:020000040800F2
:1000000018090020DD01000845640008D50B000830
:10001000BF620008D50600088570000800000000D7
:10002000000000000000000000000000E56500087E
:10003000D906000800000000CD640008CD67000864
:10004000F7010008F7010008F7010008F7010008B0
:10005000F7010008F7010008F7010008F7010008A0
:10006000F7010008F7010008F7010008F701000890
:10007000F7010008F7010008F7010008F701000880
:10008000F7010008F7010008F7010008F701000870
:10009000F7010008F7010008F7010008F701000860
:1000A000F7010008F7010008F7010008F701000850
:1000B000F7010008F7010008F7010008F701000840
:1000C000F7010008F7010008F7010008F701000830
:1000D000F7010008156E0008F7010008F701000895
:1000E000DD060008F7010008F7010008F701000825
:1000F000F7010008F7010008F7010008F701000800
:10010000F7010008F7010008F7010008F7010008EF
:10011000F7010008F7010008F7010008F7010008DF
:10012000F7010008F7010008F7010008F7010008CF
:1001300000F002F800F042F80AA090E8000C8244B7
:100140008344AAF10107DA4501D100F037F8AFF294
:10015000090EBAE80F0013F0010F18BFFB1A43F0A5
:1001600001031847D4CC0000F4CC0000103A24BF9F
:1001700078C878C1FAD8520724BF30C830C144BF0C
:1001800004680C607047000000230024002500264E
:10019000103A28BF78C1FBD8520728BF30C148BFEA
:1001A0000B607047642900F04780782900F0808058
:1001B000002070471FB51FBD10B510BD00F05CFAE0
:1001C0001146FFF7F7FF08F081F800F07AFA03B460
:1001D000FFF7F2FF03BC06F0DAFF00000948804792
:1001E00009480047FEE7FEE7FEE7FEE7FEE7FEE719
:1001F000FEE7FEE7FEE7FEE704480549054A064B31
:1002000070470000D1670008310100081802002083
:10021000180900201804002018040020704700006E
:100220000FB4044910B503AA029800F0A5F910BC58
:100230005DF814FBB00000202DE9F04106460024D3
:1002400010687529314616A510D0AFF3008000283C
:1002500002DA404213A507E031688A0701D512A5EA
:1002600002E0490704D511A5012401E0AFF30080A5
:1002700000210A2206F1240709E0B0FBF2FCB0FBE2
:10028000F2F302FB1C00303078541846491C002859
:10029000F3D123462A463046BDE8F04100F013B9B9
:1002A000000000002D0000002B00000020000000D6
:1002B00070B504460D4621461068AFF300802188D2
:1002C000090502D50F4A7A4402E00E4A7A440E32FA
:1002D000002104F1240305E000F00F060009965DFB
:1002E0005E54491C0028F7D120780023000704D56C
:1002F000702D02D009B1022311322046BDE87040B2
:1003000000F0E1B8F0C900002DE9F05F894604462D
:100310004FF0000ADFF824B1FB44C0F820A02046CB
:10032000E168884700287DD0252806D0D4E901213E
:100330009047206A401C2062F1E700255F46204676
:10034000E16888472028064607DB312E05D2B81918
:1003500010F8200C08B10543F1E7A80701D525F0F6
:100360000405C4F81CA00027C4F818A02A2E09D040
:10037000304606F005FF38B304EB8708303EC8F876
:10038000186019E059F8041B204604EB87029161BC
:10039000E1688847012F064618D1E069002820DA75
:1003A00025F020051DE0D8F8180000EB800006EBD2
:1003B00040003038C8F818002046E16888470646F3
:1003C00006F0DEFE0028EED1012F0AD02E2E08D135
:1003D0002046E16888477F1C0646022F45F020052D
:1003E000C4DBA069002803DA404245F00105A061A2
:1003F000E80701D025F01005A6B1A6F141001928A3
:1004000002D8203645F400654A463146204625602C
:100410004D46FFF7C7FE60B1012807D0ED1D25F05E
:10042000070000E007E000F1080978E705F104099A
:1004300075E730467AE7206ABDE8F09FC6C900003C
:1004400040EA010310B59B070FD1042A0DD310C851
:1004500008C9121F9C42F8D020BA19BA884201D9A3
:10046000012010BD4FF0FF3010BD1AB1D30703D0EB
:10047000521C07E0002010BD10F8013B11F8014BA1
:100480001B1B07D110F8013B11F8014B1B1B01D1BD
:10049000921EF1D1184610BD02F0FF0343EA032279
:1004A00042EA024200F07CB87047704770477047DC
:1004B00010B500F095F8006810BD10B5044600F0C6
:1004C0008FF8046010BD2DE9F0470D46994692461D
:1004D000044600F124080168880604D5E06921F08B
:1004E0001001216000E00120A84201DD471B00E06F
:1004F0000027A1697A1902EB0900081AA061207887
:10050000C00602D42046AFF30080002608E0D4E9FC
:1005100001211AF806009047206A401C761C2062D0
:100520004E45F4DB2078C0060AD52046AFF30080A4
:1005300006E0D4E9012130209047206A401C206267
:10054000381EA7F10107F4DC07E0D4E9012118F80F
:1005500005009047206A401C2062281EA5F1010575
:10056000F3DC2046AFF300802078000602D502209D
:10057000BDE8F0870120FBE7074B70B50D467B44D3
:1005800000F037F80446284600F046F810B14FF066
:10059000FF3070BD204670BDB77C00004FF00002F8
:1005A0000429C0F0128010F0030C00F03B80CCF165
:1005B000040CBCF1020F18BF00F8012BA8BF20F8F3
:1005C000022BA1EB0C0100F02DB85FEAC17C24BF27
:1005D00000F8012B00F8012B48BF00F8012B7047F1
:1005E00000487047B401002001694A1C0261087884
:1005F000704700B58FB0CDE9013100210591054963
:100600007944CDE9031011466846FFF77DFE0FB02F
:1006100000BD0000E5FFFFFF007B00F08000704799
:100620004FF0000200B5134694469646203922BF8B
:10063000A0E80C50A0E80C50B1F12001BFF4F7AFD6
:10064000090728BFA0E80C5048BF0CC05DF804EBB8
:10065000890028BF40F8042B08BF704748BF20F826
:10066000022B11F0804F18BF00F8012B70470000DB
:1006700000487047B40100207546FFF7F9FFAE4609
:1006800005006946534620F00700854618B020B59E
:10069000FFF7B2FDBDE820404FF000064FF0000725
:1006A0004FF000084FF0000B21F00701AC46ACE81A
:1006B000C009ACE8C009ACE8C009ACE8C0098D4687
:1006C000704710B50446AFF300802046BDE81040E7
:1006D000FFF77DBD00BFFEE77047000010B52E4854
:1006E0000068002856D14FF4805000F06DF82B4878
:1006F000007808B9012000E0002028490870284847
:100700000078401C26490870084600780A2804D161
:1007100000202449087022490870204800780128E8
:1007200003D106F089FC002010BD022000F014F96E
:1007300040421D490860032000F00EF91B49086083
:1007400006F07AFC1A48B0F9000009F067FE04468A
:1007500021461848006800F011FA1749086013484C
:1007600001681148006805F0B3FF14490860124899
:1007700000680968401A124908600F4800680F496C
:100780000968401A0F490860084601680C4800686B
:1007900005F098FD0020C7E7300121424E000020FF
:1007A0004D0000204C0000202C00002030000020D4
:1007B0001A00002010000020240000202800002043
:1007C0003400002038000020014908607047000014
:1007D00014040140002123498279002A3AD00A46B4
:1007E000126803689A430B461A600A1D1268036870
:1007F0009A430B1D1A60027911440A6803681A4370
:100800000A60184A0832126803689A43154B083385
:100810001A601A1D126803689A43124B0C331A604F
:100820004279102A0ED11A1F126803681A430D4B21
:1008300008331A601A1D126803681A43094B0C33F7
:100840001A600DE00749427911440A6803681A43A7
:100850000A6005E0027911440A6803689A430A6055
:10086000704700000004014000B587B0012103205B
:1008700005F02EFE0121042005F03AFEC320ADF85C
:10088000180004208DF81B0003208DF81A0006A91B
:100890002F4800F09DF84FF6FF70ADF810000020D3
:1008A000ADF80C00ADF80E00ADF8120003A94FF042
:1008B000804006F05DFA03A9264806F059FA0023A5
:1008C0001A4603214FF0804006F0FCF800231A4638
:1008D0000321204806F0F6F80020ADF80000ADF83E
:1008E00002000120ADF804000020ADF806000A2047
:1008F000ADF808006946400706F006F96946154854
:1009000006F002F90121880706F0BEF8012111481E
:1009100006F0BAF8002203214FF0804006F04AF9B1
:10092000002203210B4806F045F900214FF08040DA
:1009300006F0F0F90021074806F0ECF901218807DC
:1009400006F0A5F80121034806F0A1F807B000BDA4
:1009500000080140000400400146022902D003299A
:1009600010D108E04FF08042928C10B200224FF07C
:1009700080439A8408E0054A128810B20022034B93
:100980001A8001E0002000BF00BF7047240400402F
:1009900030B500228B071C0F0F2303FA04F20B4B18
:1009A0008C1053F824309343084C8D1044F82530B4
:1009B00023468C1053F824308C07240F00FA04F4DB
:1009C0002343024C8D1044F8253030BD080001400F
:1009D0002DE9F041024600250026002000230024D6
:1009E000002791F803C00CF00F0591F803C00CF03C
:1009F000100CBCF1000F03D091F802C04CEA0505C1
:100A000091F800C0BCF1000F31D0146800202BE039
:100A10004FF0010C0CFA00F3B1F800C00CEA030629
:100A20009E4220D183004FF00F0C0CFA03F7BC4319
:100A300005FA03FC4CEA040491F803C0BCF1280F4A
:100A400006D14FF0010C0CFA00FCC2F814C00AE009
:100A500091F803C0BCF1480F05D14FF0010C0CFA1E
:100A600000FCC2F810C0401C0828D1D31460B1F8B3
:100A700000C0BCF1FF0F34DD546800202EE000F10F
:100A8000080C4FF0010808FA0CF3B1F800C00CEAAA
:100A900003069E4221D183004FF00F0C0CFA03F79E
:100AA000BC4305FA03FC4CEA040491F803C0BCF112
:100AB000280F05D100F1080C08FA0CF8C2F81480D0
:100AC00091F803C0BCF1480F07D100F1080C4FF0BA
:100AD000010808FA0CF8C2F81080401C0828CED390
:100AE0005460BDE8F0810000F0B50A460023002400
:100AF0000021002500F00046B6F1004F02D11D4E46
:100B0000F16901E01B4E7168C0F3034583B200F444
:100B10004016B6F5401F08D121F07061154E766879
:100B200026F07066134F7E6012E000F48016B6F572
:100B3000801F06D1032606FA05F4A14341F0706137
:100B400006E0460D360103FA06F6B14341F0706146
:100B500022B1460D360103FA06F6314300F0004695
:100B6000B6F1004F02D1034EF16101E0014E716018
:100B7000F0BD000000000140016170472DE9F05F09
:100B800004468946204609F0B1FA074600220E4B7A
:100B900009F0C2F9054608F03DFD824649460B487A
:100BA000006809F09BFC064651460948006809F0B8
:100BB00095FC0746314609F0C5FA054609F0F2FBF7
:100BC00083465846BDE8F09F00001EC0400000204C
:100BD0003C00002000BFFEE708B50121102005F011
:100BE00087FC4FF4C050ADF8000010208DF80300D2
:100BF00003208DF8020069460448FFF7E9FE002053
:100C0000034908600349C1F8AC0108BD0010014068
:100C1000B00122420000224270B506460024154869
:100C2000406820F47040134948600846406840F42A
:100C300000404860002516E06006040E00200E49C2
:100C40000860052006F028FE01200C49C1F8B0011B
:100C500009488438006808B1601CC4B2052006F059
:100C60001BFE681CC5B2082DE6DB304600F056F8C6
:100C7000204670BD00100140B00122420000224217
:100C800010B51048406820F470400E49486008468E
:100C9000406840F44050486001200B4908600B490F
:100CA000C1F8AC01052006F0F7FD00200649091F38
:100CB0000860052006F0F0FD00200449C1F8B001ED
:100CC00010BD000000100140B0012242000022428D
:100CD00010B50F48406820F470400D494860084640
:100CE000406840F44050486000200A4908600A49C2
:100CF000C1F8AC01052006F0CFFD012005490860D0
:100D00000549C1F8AC01052006F0C6FD10BD000084
:100D100000100140B00122420000224210B50446FA
:100D200000200F4908600F48406820F470400D49CA
:100D300048600846406840F4405048600A48C0F89F
:100D4000AC41052006F0A8FD0120054908600520FA
:100D500006F0A2FD00200449C1F8B00110BD00005A
:100D6000B0012242001001400000224270B504464A
:100D70000020154908601548406820F47040134968
:100D800048600846406840F440504860002517E03D
:100D9000E0090D49091F0860052006F07DFD0120CE
:100DA0000B49C1F8B001052006F076FD0020064988
:100DB0000860052006F070FD6006040E681CC5B2D0
:100DC000082DE5DB70BD0000B0012242001001409B
:100DD0000000224210B500241448406820F47040FE
:100DE000124948600846406840F4004048600120CD
:100DF0000F490860052006F04FFD01200D49C1F89C
:100E0000AC01052006F048FD07E0601CC4B2FA2CD6
:100E100003DDFFF75DFF012010BD05488438006841
:100E20000028F2D10249086000BFF5E70010014038
:100E3000B00122420000224208B50121142005F031
:100E400057FB01211148FFF74FFE2020ADF80000AD
:100E500048208DF8030069460D48FFF7B9FD4FF4AF
:100E60000040ADF8000048208DF8030069460948AD
:100E7000FFF7AEFD0120ADF8000028208DF803003B
:100E800069460448FFF7A4FD08BD000000023000D9
:100E9000001001400008014070B5044600261D48BE
:100EA0000588408845431B48808846F604018842EF
:100EB00016D118488079012812D10020154988716F
:100EC0002A2048812B2088810021084604F0E4FB79
:100ED0000120104988712B2048812A20888103E055
:100EE0000021084604F0D8FB04F0E8FE00260DE0DF
:100EF0004FF4807008490861400048610748046069
:100F000080204861086180000861761CAE42EFD302
:100F100070BD0000CC000020001001400C0C01400E
:100F200010B50446002C66D16C498871F020088009
:100F30004FF4A07048800846808849F241318842C9
:100F40000BD06648808846F60401884205D0634885
:100F5000808845F2103188421AD12C205F490881DF
:100F60002A2048812B2088810846808846F6040183
:100F7000884205D05948808845F21031884206D110
:100F80004FF4A070554908804FF4F0704880A1E0FC
:100F90005248808845F21051884210D14FF43050A9
:100FA0004E4908814FF4285048814FF42C508881D5
:100FB0004FF4F07008804FF4487048808AE047484A
:100FC000808841F6631188420DD12C204349088165
:100FD0002B2048812A2088814FF4F07008804FF43C
:100FE0004870488076E022203C49088120204881D2
:100FF000212088816EE00120384988714FF4A0706B
:101000000880F02048800846808849F241318842B3
:1010100005D03248808845F21031884207D12C2013
:101020002E4908812A2048812B2088813FE02B48C7
:10103000808846F60401884207D12C202749088180
:101040002B2048812A20888131E02448808845F27D
:101050001051884210D14FF43050204908814FF48C
:10106000285048814FF42C5088814FF448700880F4
:101070004FF4F07048801AE01848808841F66311F8
:1010800088420DD12C20154908812A2048812B2027
:1010900088814FF4487008804FF4F070488006E073
:1010A00022200E49088121204881202088810B4878
:1010B000808846F60401884205D00848808845F2B9
:1010C0001031884206D14FF4F070044908804FF483
:1010D000A0704880002004F0B3F810BDCC000020C0
:1010E00070B504460D461646D348808849F2413112
:1010F000884205D0D048808845F21031884240D1DE
:10110000CD49488904F0C8FD4FF48070CB4908618F
:10111000400048612012CA4908608020C7494861E0
:101120000861800008614010086140004861E0B239
:10113000C34908608020C149486108618000086196
:10114000BD49888904F0A8FD4FF48070BB4908614F
:10115000400048612812BA4908608020B7494861B8
:101160000861800008614010086140004861E8B2F1
:10117000B34908608020B149486108618000086176
:101180003DE1AD48808845F21051884250D1AA49CE
:10119000488904F081FD4FF48070A849086140003F
:1011A00048612012A64908608020A449486108616E
:1011B00080000861A0494989491C88B204F06CFD8F
:1011C0004FF480709D49086140004861E0B29C493D
:1011D000086080209949486108618000086196494B
:1011E000888904F059FD4FF48070944908614000EB
:1011F000486128129249086080209049486108613E
:10120000800008618C498989491C88B204F044FD3A
:101210004FF480708949086140004861E8B288490C
:101220000860802085494861086180000861E6E027
:101230008148808841F6631188427DD17E4880795B
:1012400020B97D480088401E001B84B27A49488935
:1012500004F022FD4FF48070784908614000486135
:101260002012774908608020744948610861800035
:1012700008614010086140004861E0B270490860B0
:1012800080206E4948610861800008614010086153
:101290004000486120126A4908608020674948611F
:1012A0000861800008614010086140004861E0B2B8
:1012B00063490860802061494861086180000861D5
:1012C0005D49888904F0E8FC4FF480705B4908614F
:1012D0004000486128125A490860802057494861F7
:1012E0000861800008614010086140004861E8B270
:1012F00053490860802051494861086180000861B5
:10130000401008614000486128124D490860802063
:101310004A49486108618000086140100861400046
:101320004861E8B246490860802044494861086144
:101330008000086163E0FFE73F48808846F60401CB
:10134000884249D13C488079012804D13A48008834
:10135000401E001B84B23849488904F09DFC4FF4BC
:1013600080703649086140004861201234490860A5
:10137000802032494861086180000861401008619E
:1013800040004861E0B22E49086080202B49486146
:101390000861800008612849888904F07DFC4FF4C9
:1013A000807026490861400048612812244908607D
:1013B000802022494861086180000861401008616E
:1013C00040004861E8B21E49086080201B4948611E
:1013D00008618000086112E017488079012804D173
:1013E00015480088401E001B84B2134948892146D5
:1013F00004F06CFC10498889294604F067FC4FF41E
:1014000080700E494861400048610B4800890C49D2
:101410000860802009494861086180000861401027
:101420000861400048610648066080204861086104
:101430008000086170BD0000CC0000200010014059
:101440000C0C01402DE9FC4F05460E461746984608
:10145000DDF82C90002001902C48808846F604018D
:10146000884229D129488079012825D1AB463546C3
:1014700026480088C01B401E86B247462348008885
:10148000A0EB0B00401E1FFA80F800201F49887156
:101490002A2048812B20888143463A4631462846F7
:1014A000CDF80090FFF7CEFF0120184988712B205E
:1014B00048812A20888127E0781B401C80B2019057
:1014C00034461FE02146284604F0E6F804F0F6FB17
:1014D0004FF0000A11E04FF480700D4908614000A0
:1014E00048610C48C0F80090802048610861800085
:1014F00008610AF101001FFA80FA01988245EADBCF
:10150000601C84B24445DDDDBDE8FC8FCC000020CA
:10151000001001400C0C014008B50121192004F015
:10152000E7FF0121FE48FFF7DFFA4FF4F860ADF85E
:10153000000010208DF8030003208DF8020069469A
:10154000F848FFF745FA4FF4F861F648FFF714FB47
:101550004FF6FF70ADF800006946F348FFF738FA20
:101560004FF6FF71F048FFF707FB322006F06EF9E7
:101570000121002004F0AAFB322006F067F90020C8
:1015800003F0ECFDE949888008468088FF280ADBE3
:10159000084680884FF6FF71884204D0E34880886F
:1015A000B0F5134F7ED1D32004F076FB03F09EFDFF
:1015B00003F09CFD03F09AFDDC4988800846808892
:1015C0004FF6FF7101EA0020D849888003F08EFDB4
:1015D000D64989880843D54988800846808849F2D9
:1015E000413188425ED0BF2004F056FB03F07EFDFF
:1015F00003F07CFD03F07AFD03F078FDCB49888091
:10160000084680884FF6FF7101EA0020C7498880AC
:1016100003F06CFDC54989880843C44988800846A1
:10162000808846F60401884274D0D42004F034FB4C
:1016300003F05CFD03F05AFD03F058FDBB498880C0
:10164000084680884FF6FF7101EA0020B74988807C
:1016500003F04CFDB54989880843B44988800846A1
:10166000808845F21031884254D04FF45A4004F03B
:1016700013FB03F03BFD4FF45B4004F00DFB03F064
:1016800035FDAA498880084680884FF6FF7101EA37
:101690000020A64988804FF45C4004F0FDFA03F076
:1016A00025FD00E036E0A149898808439F498880EC
:1016B00008468088B0F5004F02D145F2105088806E
:1016C0009A48808845F21051884223D0A12004F026
:1016D000E3FA03F00BFD9549888003F007FD934979
:1016E0008880084680884FF6FF7101EA00208F4904
:1016F000888003F0FBFC8D49898808438B498880EA
:101700000846808845F26171884203D141F6631032
:10171000864988808548818885A0FEF781FD8348B9
:10172000808849F2413188427ED1CF2004F0B4FA5A
:10173000002004F09FFAC12004F09CFA302004F04D
:1017400099FAED2004F0A8FA642004F093FA03203B
:1017500004F090FA122004F08DFA812004F08AFA45
:10176000E82004F099FA852004F084FA102004F0AF
:1017700081FA7A2004F07EFACB2004F08DFA392029
:1017800004F078FA2C2004F075FA002004F072FAC4
:10179000342004F06FFA022004F06CFAF72004F011
:1017A0007BFA202004F066FAEA2004F075FA0020A3
:1017B00004F060FA002004F05DFAC02004F06CFA36
:1017C0001B2004F057FAC12004F066FA012004F04F
:1017D00051FAC52004F060FA302004F04BFA3020B2
:1017E00004F048FAC72004F057FAB72004F042FA90
:1017F000362004F051FA482004F03CFA3A2004F074
:101800004BFA552004F036FAB12004F045FA0020D6
:1018100004F030FA1A2004F02DFAB62004F03CFA55
:101820000A2004F027FA00E0A9E0A22004F022FA3E
:10183000F22004F031FA002004F01CFA262004F013
:101840002BFA012004F016FAE02004F025FA0F200C
:1018500004F010FA2A2004F00DFA282004F00AFA05
:10186000082004F007FA0E2004F004FA082004F01F
:1018700001FA542004F0FEF9A92004F0FBF94320FA
:1018800004F0F8F90A2004F0F5F90F2004F0F2F959
:10189000002004F0EFF9002004F0ECF9002004F03F
:1018A000E9F9002004F0E6F9E12004F0F5F9002060
:1018B00004F0E0F9152004F0DDF9172004F0DAF95E
:1018C000072004F0D7F9112004F0D4F9062004F021
:1018D000D1F92B2004F0CEF9562004F0CBF93C20AE
:1018E00004F0C8F9052004F0C5F9102004F0C2F98D
:1018F0000F2004F0BFF93F2004F0BCF93F2004F0B2
:10190000B9F90F2004F0B6F92B2004F0C5F9002036
:1019100004F0B0F9002004F0ADF9012010E000005F
:101920000002300000100140000C0140CC000020FB
:10193000204C43442049443A25780D0A0000000019
:1019400004F098F93F2004F095F92A2004F0A4F956
:10195000002004F08FF9002004F08CF9002004F03E
:1019600089F9EF2004F086F9112004F095F9782028
:1019700005F06CFF292004F08FF903F09ABBFE48B4
:10198000808846F6040188427ED1112004F084F953
:10199000142005F05BFFD02004F07EF9072004F04E
:1019A00069F9422004F066F91D2004F063F9D120A2
:1019B00004F072F9002004F05DF91A2004F05AF9DD
:1019C000092004F057F9D22004F066F9012004F050
:1019D00051F9222004F04EF9C02004F05DF91020E6
:1019E00004F048F93B2004F045F9002004F042F9E6
:1019F000022004F03FF9112004F03CF9C52004F066
:101A00004BF9032004F036F9C82004F045F9002012
:101A100004F030F9252004F02DF9212004F02AF9F2
:101A2000052004F027F9002004F024F90A2004F02E
:101A300021F9652004F01EF9252004F01BF9772018
:101A400004F018F9502004F015F90F2004F012F9F1
:101A5000002004F00FF9F82004F01EF9012004F032
:101A600009F9FE2004F018F9002004F003F902201F
:101A700004F000F9202004F00FF9362004F00CF9EE
:101A8000082004F0F7F800E02AE03A2004F004F916
:101A9000552004F0EFF82B2004F0FEF8002004F0AD
:101AA000E9F8002004F0E6F8012004F0E3F83F2014
:101AB00004F0E0F82A2004F0EFF8002004F0DAF84F
:101AC000002004F0D7F8012004F0D4F8DF2004F05F
:101AD000D1F8782005F0BAFE292004F0DDF84CE7B3
:101AE000A548808845F21031884240F07C87ED207F
:101AF00004F0D2F8012004F0BDF8FE2004F0BAF89A
:101B0000EE2004F0C9F8DE2004F0B4F8212004F03F
:101B1000B1F8F12004F0C0F8012004F0ABF8DF20A8
:101B200004F0BAF8102004F0A5F8C42004F0B4F8CA
:101B30008F2004F09FF8C62004F0AEF8002004F0D7
:101B400099F8E22004F096F8E22004F093F8E220FD
:101B500004F090F8BF2004F09FF8AA2004F08AF85F
:101B6000B02004F099F80D2004F084F8002004F06F
:101B700081F80D2004F07EF8002004F07BF811209D
:101B800004F078F8002004F075F8192004F072F8D9
:101B9000002004F06FF8212004F06CF8002004F01D
:101BA00069F82D2004F066F8002004F063F83D2069
:101BB00004F060F8002004F05DF85D2004F05AF8AD
:101BC000002004F057F85D2004F054F8002004F0E1
:101BD00051F8B12004F060F8802004F04BF80020A8
:101BE00004F048F88B2004F045F8002004F042F897
:101BF000962004F03FF8002004F03CF8B22004F0F6
:101C00004BF8002004F036F8002004F033F80220EE
:101C100004F030F8002004F02DF8032004F02AF836
:101C2000002004F027F8B32004F036F8002004F078
:101C300021F8002004F01EF8002004F01BF800201A
:101C400004F018F8002004F015F8002004F012F851
:101C5000002004F00FF8002004F00CF8002004F03D
:101C600009F8002004F006F8002004F003F8002032
:101C700004F000F8002003F0FDFF002003F0FAFF5D
:101C8000002003F0F7FF002003F0F4FF002003F032
:101C9000F1FF002003F0EEFF002003F0EBFF002037
:101CA00003F0E8FF002003F0E5FF002003F0E2FF6F
:101CB000002003F0DFFF002003F0DCFFB42003F07E
:101CC000EBFF8B2003F0D6FF002003F0D3FF96201C
:101CD00003F0D0FF002003F0CDFFA12003F0CAFFE6
:101CE000002003F0C7FFB52003F0D6FF022003F069
:101CF000C1FF002003F0BEFF032003F0BBFF002064
:101D000003F0B8FF042003F0B5FF002003F0B2FF9A
:101D1000B62003F0C1FF002003F0ACFF002003F069
:101D2000A9FFB72003F0B8FF002003F0A3FF0020B5
:101D300003F0A0FF3F2003F09DFF002003F09AFF77
:101D40005E2003F097FF002003F094FF642003F06F
:101D500091FF002003F08EFF8C2003F08BFF00200A
:101D600003F088FFAC2003F085FF002003F082FF22
:101D7000DC2003F07FFF01E0CC000020002003F016
:101D800079FF702003F076FF002003F073FF9020AE
:101D900003F070FF002003F06DFFEB2003F06AFFFB
:101DA000002003F067FFDC2003F064FF002003F055
:101DB00061FFB82003F070FF002003F05BFF0020FC
:101DC00003F058FF002003F055FF002003F052FFFE
:101DD000002003F04FFF002003F04CFF002003F031
:101DE00049FF002003F046FFBA2003F055FF2420EE
:101DF00003F040FF002003F03DFF002003F03AFF16
:101E0000002003F037FFC12003F046FF202003F03D
:101E100031FF002003F02EFF542003F02BFF0020A1
:101E200003F028FFFF2003F025FF002003F022FF2E
:101E3000C22003F031FF0A2003F01CFF002003F052
:101E400019FF042003F016FF002003F013FFC32046
:101E500003F022FF3C2003F00DFF002003F00AFFF7
:101E60003A2003F007FF002003F004FF392003F0BD
:101E700001FF002003F0FEFE372003F0FBFE0020F0
:101E800003F0F8FE3C2003F0F5FE002003F0F2FE24
:101E9000362003F0EFFE002003F0ECFE322003F0CA
:101EA000E9FE002003F0E6FE2F2003F0E3FE002011
:101EB00003F0E0FE2C2003F0DDFE002003F0DAFE4C
:101EC000292003F0D7FE002003F0D4FE262003F0E3
:101ED000D1FE002003F0CEFE242003F0CBFE002034
:101EE00003F0C8FE242003F0C5FE002003F0C2FE6C
:101EF000232003F0BFFE002003F0BCFE3C2003F0D3
:101F0000B9FE002003F0B6FE362003F0B3FE002039
:101F100003F0B0FE322003F0ADFE002003F0AAFE75
:101F20002F2003F0A7FE002003F0A4FE2C2003F0D6
:101F3000A1FE002003F09EFE292003F09BFE00205E
:101F400003F098FE262003F095FE002003F092FE99
:101F5000242003F08FFE002003F08CFE242003F0E9
:101F600089FE002003F086FE232003F083FE00207C
:101F700003F080FEC42003F08FFE622003F07AFE9F
:101F8000002003F077FE052003F074FE002003F02C
:101F900071FE842003F06EFE002003F06BFEF02043
:101FA00003F068FE002003F065FE182003F062FED7
:101FB000002003F05FFEA42003F05CFE002003F08D
:101FC00059FE182003F056FE002003F053FE502067
:101FD00003F050FE002003F04DFE0C2003F04AFEFB
:101FE000002003F047FE172003F044FE002003F01A
:101FF00041FE952003F03EFE002003F03BFEF3205F
:1020000003F038FE002003F035FEE62003F032FE38
:10201000002003F02FFEC52003F03EFE322003F027
:1020200029FE002003F026FE442003F023FE0020BA
:1020300003F020FE652003F01DFE002003F01AFED1
:10204000762003F017FE002003F014FE882003F032
:1020500011FE002003F00EFEC62003F01DFE20201E
:1020600003F008FE002003F005FE172003F002FE37
:10207000002003F0FFFD012003F0FCFD002003F031
:10208000F9FDC72003F008FE002003F0F3FD002057
:1020900003F0F0FD002003F0EDFD002003F0EAFD69
:1020A000C82003F0F9FD002003F0E4FD002003F058
:1020B000E1FD002003F0DEFD002003F0DBFDC92080
:1020C00003F0EAFD002003F0D5FD002003F0D2FD6F
:1020D000002003F0CFFD002003F0CCFD002003F032
:1020E000C9FD002003F0C6FD002003F0C3FD002061
:1020F00003F0C0FD002003F0BDFD002003F0BAFD99
:10210000002003F0B7FD002003F0B4FD002003F031
:10211000B1FD002003F0AEFD002003F0ABFD002078
:1021200003F0A8FDE02003F0B7FD162003F0A2FDA8
:10213000002003F09FFD1C2003F09CFD002003F015
:1021400099FD212003F096FD002003F093FD362039
:1021500003F090FD002003F08DFD462003F08AFD82
:10216000002003F087FD522003F084FD002003F0DF
:1021700081FD642003F07EFD002003F07BFD7A20CA
:1021800003F078FD002003F075FD8B2003F072FD55
:10219000002003F06FFD992003F06CFD002003F098
:1021A00069FDA82003F066FD002003F063FDB9205F
:1021B00003F060FD002003F05DFDC42003F05AFD34
:1021C000002003F057FDCA2003F054FD002003F067
:1021D00051FDD22003F04EFD002003F04BFDD9202D
:1021E00003F048FD002003F045FDE02003F042FD30
:1021F000002003F03FFDF32003F03CFD002003F03E
:1022000039FDE12003F048FD162003F033FD0020E6
:1022100003F030FD1C2003F02DFD002003F02AFD0B
:10222000222003F027FD002003F024FD362003F0D8
:1022300021FD002003F01EFD452003F01BFD0020C2
:1022400003F018FD522003F015FD002003F012FDED
:10225000642003F00FFD002003F00CFD7A2003F052
:1022600009FD002003F006FD8B2003F003FD002094
:1022700003F000FD992003F0FDFC002003F0FAFCC0
:10228000A82003F0F7FC002003F0F4FCB92003F0D1
:10229000F1FC002003F0EEFCC42003F0EBFC002076
:1022A00003F0E8FCCA2003F0E5FC002003F0E2FCA8
:1022B000D22003F0DFFC002003F0DCFCD82003F088
:1022C000D9FC002003F0D6FCE02003F0D3FC002072
:1022D00003F0D0FCF32003F0CDFC002003F0CAFC97
:1022E000E22003F0D9FC052003F0C4FC002003F039
:1022F000C1FC0B2003F0BEFC002003F0BBFC1B2044
:1023000003F0B8FC002003F0B5FC342003F0B2FC6D
:10231000002003F0AFFC442003F0ACFC002003F0ED
:10232000A9FC4F2003F0A6FC002003F0A3FC6120D1
:1023300003F0A0FC002003F09DFC792003F09AFC40
:10234000002003F097FC882003F094FC002003F0A9
:1023500091FC972003F08EFC002003F08BFCA6205C
:1023600003F088FC002003F085FCB72003F082FC1A
:10237000002003F07FFCC22003F07CFC002003F06F
:1023800079FCC72003F076FC002003F073FCD12019
:1023900003F070FC002003F06DFCD62003F06AFC13
:1023A000002003F067FCDD2003F064FC002003F054
:1023B00061FCF32003F05EFC002003F05BFCE320F3
:1023C00003F06AFC052003F055FC002003F052FCEA
:1023D0000A2003F04FFC002003F04CFC1C2003F00B
:1023E00049FC002003F046FC332003F043FC0020AE
:1023F00003F040FC442003F03DFC002003F03AFCD5
:10240000502003F037FC002003F034FC622003F07E
:1024100031FC002003F02EFC782003F02BFC002080
:1024200003F028FC882003F025FC002003F022FCA8
:10243000972003F01FFC002003F01CFCA62003F0F3
:1024400019FC002003F016FCB72003F013FC002059
:1024500003F010FCC22003F00DFC002003F00AFC86
:10246000C72003F007FC002003F004FCD12003F098
:1024700001FC002003F0FEFBD52003F0FBFB002055
:1024800003F0F8FBDD2003F0F5FB002003F0F2FB86
:10249000F32003F0EFFB002003F0ECFBE42003F05B
:1024A000FBFB012003F0E6FB002003F0E3FB01202F
:1024B00003F0E0FB002003F0DDFB022003F0DAFB79
:1024C000002003F0D7FB2A2003F0D4FB002003F008
:1024D000D1FB3C2003F0CEFB002003F0CBFB4B20D4
:1024E00003F0C8FB002003F0C5FB5D2003F0C2FB36
:1024F000002003F0BFFB742003F0BCFB002003F0BE
:10250000B9FB842003F0B6FB002003F0B3FB93205B
:1025100003F0B0FB002003F0ADFBA22003F0AAFB08
:10252000002003F0A7FBB32003F0A4FB002003F07E
:10253000A1FBBE2003F09EFB002003F09BFBC42008
:1025400003F098FB002003F095FBCD2003F092FBF5
:10255000002003F08FFBD32003F08CFB002003F05E
:1025600089FBDD2003F086FB002003F083FBF320D2
:1025700003F080FB002003F07DFBE52003F08CFBE3
:10258000002003F077FB002003F074FB002003F031
:1025900071FB002003F06EFB022003F06BFB0020B8
:1025A00003F068FB292003F065FB002003F062FBC9
:1025B0003C2003F05FFB002003F05CFB4B2003F0AA
:1025C00059FB002003F056FB5D2003F053FB002075
:1025D00003F050FB742003F04DFB002003F04AFB96
:1025E000842003F047FB002003F044FB932003F01A
:1025F00041FB002003F03EFBA22003F03BFB002048
:1026000003F038FBB32003F035FB002003F032FB6E
:10261000BE2003F02FFB002003F02CFBC42003F0AE
:1026200029FB002003F026FBCD2003F023FB002034
:1026300003F020FBD32003F01DFB002003F01AFB66
:10264000DC2003F017FB002003F014FBF32003F061
:1026500011FB002003F00EFBE62003F01DFB112010
:1026600003F008FB002003F005FB342003F002FB1D
:10267000002003F0FFFA562003F0FCFA002003F0DC
:10268000F9FA762003F0F6FA002003F0F3FA772047
:1026900003F0F0FA002003F0EDFA662003F0EAFA06
:1026A000002003F0E7FA882003F0E4FA002003F0AA
:1026B000E1FA992003F0DEFA002003F0DBFABB20F8
:1026C00003F0D8FA002003F0D5FA992003F0D2FAEB
:1026D000002003F0CFFA662003F0CCFA002003F0CC
:1026E000C9FA552003F0C6FA002003F0C3FA5520BA
:1026F00003F0C0FA002003F0BDFA452003F0BAFA57
:10270000002003F0B7FA432003F0B4FA002003F0EE
:10271000B1FA442003F0AEFA002003F0ABFAE72050
:1027200003F0BAFA322003F0A5FA002003F0A2FA6F
:10273000552003F09FFA002003F09CFA762003F066
:1027400099FA002003F096FA662003F093FA00202D
:1027500003F090FA672003F08DFA002003F08AFA64
:10276000672003F087FA002003F084FA872003F043
:1027700081FA002003F07EFA992003F07BFA002012
:1027800003F078FABB2003F075FA002003F072FA28
:10279000992003F06FFA002003F06CFA772003F021
:1027A00069FA002003F066FA442003F063FA00207F
:1027B00003F060FA562003F05DFA002003F05AFAA5
:1027C000232003F057FA002003F054FA332003F0DB
:1027D00051FA002003F04EFA452003F04BFA002096
:1027E00003F048FAE82003F057FA002003F042FA19
:1027F000002003F03FFA992003F03CFA002003F098
:1028000039FA872003F036FA002003F033FA8820E3
:1028100003F030FA002003F02DFA772003F02AFAB3
:10282000002003F027FA662003F024FA002003F0CA
:1028300021FA882003F01EFA002003F01BFAAA20D8
:1028400003F018FA002003F015FABB2003F012FA87
:10285000002003F00FFA992003F00CFA002003F097
:1028600009FA662003F006FA002003F003FA552067
:1028700003F000FA002003F0FDF9552003F0FAF907
:10288000002003F0F7F9442003F0F4F9002003F0EE
:10289000F1F9442003F0EEF9002003F0EBF95520A4
:1028A00003F0E8F9002003F0E5F9E92003F0F4F97A
:1028B000AA2003F0DFF9002003F0DCF9002003F088
:1028C000D9F9002003F0D6F9002003F0E5F9AA2099
:1028D00003F0D0F9CF2003F0DFF9002003F0CAF9AC
:1028E000002003F0C7F9002003F0C4F9002003F032
:1028F000C1F9002003F0BEF9002003F0BBF900206D
:1029000003F0B8F9002003F0B5F9002003F0B2F9A4
:10291000002003F0AFF9002003F0ACF9002003F031
:10292000A9F9002003F0A6F9002003F0A3F9002084
:1029300003F0A0F9002003F09DF9002003F09AF9BC
:10294000F02003F0A9F9002003F094F9502003F0DF
:1029500091F9002003F08EF9002003F08BF900209C
:1029600003F088F9F32003F097F9002003F082F9CF
:10297000F92003F091F9062003F07CF9102003F010
:1029800079F9292003F076F9002003F073F93A2051
:1029900003F082F9552003F06DF9112003F07CF962
:1029A000642004F053FF292003F076F9352003F06A
:1029B00073F9002003F05EF9512003F06DF9FF2058
:1029C00003F058F9532003F067F92C2003F052F973
:1029D000552003F061F9822003F04CF92C2003F01C
:1029E0005BF902F066BBFE48808845F210518842D0
:1029F0007ED155214FF4704003F068F9AA214FF2BF
:102A0000010003F063F952214FF2020003F05EF976
:102A100008214FF2030003F059F901214FF204009D
:102A200003F054F90D214FF4304003F04FF90D211C
:102A30004BF2010003F04AF90D214BF2020003F0C2
:102A400045F934214FF4364003F040F934214BF27C
:102A5000016003F03BF934214BF2026003F036F9D8
:102A60000D214FF4314003F031F90D214BF20110EB
:102A700003F02CF90D214BF2021003F027F9342159
:102A80004FF4374003F022F934214BF2017003F088
:102A90001DF934214BF2027003F018F900214FF4B4
:102AA000324003F013F900214BF2012003F00EF93C
:102AB00000214BF2022003F009F924214FF43840A1
:102AC00003F004F924214BF6010003F0FFF8242160
:102AD0004BF6020003F0FAF801214FF43F4003F0F7
:102AE000F5F80F214FF4334003F0F0F80F2100E028
:102AF000FEE34BF2013003F0E9F80F214BF2023014
:102B000003F0E4F834214FF4394003F0DFF83421C6
:102B10004BF6011003F0DAF834214BF6021003F003
:102B2000D5F808214FF4354003F0D0F808214BF2D6
:102B3000015003F0CBF808214BF2025003F0C6F825
:102B400003214FF4424003F0C1F824214FF43A40EE
:102B500003F0BCF824214BF6012003F0B7F8242140
:102B60004BF6022003F0B2F800214FF43C4003F092
:102B7000ADF878214BF6014003F0A8F800214BF6A0
:102B8000024003F0A3F800214FF43D4003F09EF80B
:102B900078214BF6015003F099F800214BF60250D2
:102BA00003F094F800214FF43E4003F08FF86421C5
:102BB0004BF6016003F08AF800214FF4514003F016
:102BC00085F833214DF2011003F080F800214DF219
:102BD000021003F07BF834214DF2031003F076F875
:102BE00000214DF2041003F071F83A214DF2051066
:102BF00003F06CF800214DF2061003F067F84A214B
:102C00004DF2071003F062F800214DF2081003F0B6
:102C10005DF85C214DF2091003F058F800214DF2E7
:102C20000A1003F053F881214DF20B1003F04EF817
:102C300000214DF20C1003F049F8A6214DF20D10C1
:102C400003F044F800214DF20E1003F03FF8E521A7
:102C50004DF20F1003F03AF801214DF2101003F07D
:102C600035F813214DF2111003F030F801214DF227
:102C7000121003F02BF854214DF2131003F026F834
:102C800001214DF2141003F021F882214DF21510AC
:102C900003F01CF801214DF2161003F017F8CA21B9
:102CA0004DF2171003F012F802214DF2181003F044
:102CB0000DF800214DF2191003F008F802214DF231
:102CC0001A1003F003F801214DF21B1002F0FEFF71
:102CD00002214DF21C1002F0F9FF34214DF21D10BB
:102CE00002F0F4FF02214DF21E1002F0EFFF672107
:102CF0004DF21F1002F0EAFF02214DF2201002F007
:102D0000E5FF84214DF2211002F0E0FF02214DF297
:102D1000221002F0DBFFA4214DF2231002F0D6FFB7
:102D200002214DF2241002F0D1FFB7214DF22510FF
:102D300002F0CCFF02214DF2261002F0C7FFCF2196
:102D40004DF2271002F0C2FF02214DF2281002F0CE
:102D5000BDFFDE214DF2291002F0B8FF02214DF235
:102D60002A1002F0B3FFF2214DF22B1002F0AEFF59
:102D700002214DF22C1002F0A9FFFE214DF22D1080
:102D800002F0A4FF03214DF22E1002F09FFF10214C
:102D90004DF22F1002F09AFF03214DF2301002F095
:102DA00095FF33214DF2311002F090FF03214DF2D7
:102DB000321002F08BFF6D214DF2331002F086FFCE
:102DC00000214FF4524002F081FF33214DF20120E7
:102DD00002F07CFF00214DF2022002F077FF01E0BB
:102DE000CC00002034214DF2032002F06FFF0021BF
:102DF0004DF2042002F06AFF3A214DF2052002F064
:102E000065FF00214DF2062002F060FF4A214DF2DD
:102E1000072002F05BFF00214DF2082002F056FF70
:102E20005C214DF2092002F051FF00214DF20A20F1
:102E300002F04CFF81214DF20B2002F047FF0021F0
:102E40004DF20C2002F042FFA6214DF20D2002F0BF
:102E50003DFF00214DF20E2002F038FFE5214DF23A
:102E60000F2002F033FF01214DF2102002F02EFF5F
:102E700013214DF2112002F029FF01214DF2122001
:102E800002F024FF54214DF2132002F01FFF012114
:102E90004DF2142002F01AFF82214DF2152002F0AB
:102EA00015FF01214DF2162002F010FFCA214DF24C
:102EB000172002F00BFF02214DF2182002F006FF4E
:102EC00000214DF2192002F001FF02214DF21A20DB
:102ED00002F0FCFE01214DF21B2002F0F7FE022160
:102EE0004DF21C2002F0F2FE34214DF21D2002F0C2
:102EF000EDFE02214DF21E2002F0E8FE67214DF2A8
:102F00001F2002F0E3FE02214DF2202002F0DEFE3F
:102F100084214DF2212002F0D9FE02214DF222201F
:102F200002F0D4FEA4214DF2232002F0CFFE0221B4
:102F30004DF2242002F0CAFEB7214DF2252002F006
:102F4000C5FE02214DF2262002F0C0FECF214DF237
:102F5000272002F0BBFE02214DF2282002F0B6FE2F
:102F6000DE214DF2292002F0B1FE02214DF22A208D
:102F700002F0ACFEF2214DF22B2002F0A7FE02215E
:102F80004DF22C2002F0A2FEFE214DF22D2002F087
:102F90009DFE03214DF22E2002F098FE10214DF2ED
:102FA0002F2002F093FE03214DF2302002F08EFE1E
:102FB00033214DF2312002F089FE03214DF23220FF
:102FC00002F084FE6D214DF2332002F07FFE0021DD
:102FD0004FF4534002F07AFE33214DF2013002F0FB
:102FE00075FE00214DF2023002F070FE34214DF2E8
:102FF000033002F06BFE00214DF2043002F066FE59
:103000003A214DF2053002F061FE00214DF206300A
:1030100002F05CFE4A214DF2073002F057FE00211B
:103020004DF2083002F052FE5C214DF2093002F000
:103030004DFE00214DF20A3002F048FE81214DF292
:103040000B3002F043FE00214DF20C3002F03EFE48
:10305000A6214DF20D3002F039FE00214DF20E3066
:1030600002F034FEE5214DF20F3002F02FFE012177
:103070004DF2103002F02AFE13214DF2113002F011
:1030800025FE01214DF2123002F020FE54214DF2B6
:10309000133002F01BFE01214DF2143002F016FE37
:1030A00082214DF2153002F011FE01214DF2163051
:1030B00002F00CFECA214DF2173002F007FE022189
:1030C0004DF2183002F002FE00214DF2193002F0EC
:1030D000FDFD02214DF21A3002F0F8FD01214DF202
:1030E0001B3002F0F3FD02214DF21C3002F0EEFD28
:1030F00034214DF21D3002F0E9FD02214DF21E3067
:1031000002F0E4FD67214DF21F3002F0DFFD0221E5
:103110004DF2203002F0DAFD84214DF2213002F030
:10312000D5FD02214DF2223002F0D0FDA4214DF256
:10313000233002F0CBFD02214DF2243002F0C6FD17
:10314000B7214DF2253002F0C1FD02214DF22630AB
:1031500002F0BCFDCF214DF2273002F0B7FD022175
:103160004DF2283002F0B2FDDE214DF2293002F09E
:10317000ADFD02214DF22A3002F0A8FDF2214DF200
:103180002B3002F0A3FD02214DF22C3002F09EFD07
:10319000FE214DF22D3002F099FD03214DF22E302B
:1031A00002F094FD10214DF22F3002F08FFD03212B
:1031B0004DF2303002F08AFD33214DF2313002F011
:1031C00085FD03214DF2323002F080FD6D214DF27C
:1031D000333002F07BFD00214FF4544002F076FDC5
:1031E00033214DF2014002F071FD00214DF2024009
:1031F00002F06CFD34214DF2034002F067FD002126
:103200004DF2044002F062FD3A214DF2054002F019
:103210005DFD00214DF2064002F058FD4A214DF2BD
:10322000074002F053FD00214DF2084002F04EFD30
:103230005C214DF2094002F049FD00214DF20A40A7
:1032400002F044FD81214DF20B4002F03FFD0021D0
:103250004DF20C4002F03AFDA6214DF20D4002F075
:1032600035FD00214DF20E4002F030FDE5214DF21A
:103270000F4002F02BFD01214DF2104002F026FD1F
:1032800013214DF2114002F021FD01214DF21240B7
:1032900002F01CFD54214DF2134002F017FD0121F4
:1032A0004DF2144002F012FD82214DF2154002F061
:1032B0000DFD01214DF2164002F008FDCA214DF22C
:1032C000174002F003FD02214DF2184002F0FEFC0F
:1032D00000214DF2194002F0F9FC02214DF21A4092
:1032E00002F0F4FC01214DF21B4002F0EFFC00E083
:1032F00004E302214DF21C4002F0E8FC34214DF2BF
:103300001D4002F0E3FC02214DF21E4002F0DEFC03
:1033100067214DF21F4002F0D9FC02214DF22040FE
:1033200002F0D4FC84214DF2214002F0CFFC0221B6
:103330004DF2224002F0CAFCA4214DF2234002F0DB
:10334000C5FC02214DF2244002F0C0FCB7214DF231
:10335000254002F0BBFC02214DF2264002F0B6FCF3
:10336000CF214DF2274002F0B1FC02214DF228405E
:1033700002F0ACFCDE214DF2294002F0A7FC022154
:103380004DF22A4002F0A2FCF2214DF22B4002F055
:103390009DFC02214DF22C4002F098FCFE214DF2E2
:1033A0002D4002F093FC03214DF22E4002F08EFCE2
:1033B00010214DF22F4002F089FC03214DF23040E4
:1033C00002F084FC33214DF2314002F07FFC0321F6
:1033D0004DF2324002F07AFC6D214DF2334002F0A2
:1033E00075FC00214FF4554002F070FC33214DF282
:1033F000015002F06BFC00214DF2025002F066FC1D
:1034000034214DF2035002F061FC00214DF20450D2
:1034100002F05CFC3A214DF2055002F057FC00210D
:103420004DF2065002F052FC4A214DF2075002F0D4
:103430004DFC00214DF2085002F048FC5C214DF299
:10344000095002F043FC00214DF20A5002F03EFC0C
:1034500081214DF20B5002F039FC00214DF20C504D
:1034600002F034FCA6214DF20D5002F02FFC002199
:103470004DF20E5002F02AFCE5214DF20F5002F001
:1034800025FC01214DF2105002F020FC13214DF2D9
:10349000115002F01BFC01214DF2125002F016FCFB
:1034A00054214DF2135002F011FC01214DF2145041
:1034B00002F00CFC82214DF2155002F007FC0121B4
:1034C0004DF2165002F002FCCA214DF2175002F0E4
:1034D000FDFB02214DF2185002F0F8FB00214DF2E5
:1034E000195002F0F3FB02214DF21A5002F0EEFBEC
:1034F00001214DF21B5002F0E9FB02214DF21C505C
:1035000002F0E4FB34214DF21D5002F0DFFB0221FA
:103510004DF21E5002F0DAFB67214DF21F5002F00F
:10352000D5FB02214DF2205002F0D0FB84214DF258
:10353000215002F0CBFB02214DF2225002F0C6FBDB
:10354000A4214DF2235002F0C1FB02214DF2245080
:1035500002F0BCFBB7214DF2255002F0B7FB02216F
:103560004DF2265002F0B2FBCF214DF2275002F06F
:10357000ADFB02214DF2285002F0A8FBDE214DF2F6
:10358000295002F0A3FB02214DF22A5002F09EFBCB
:10359000F2214DF22B5002F099FB02214DF22C50FA
:1035A00002F094FBFE214DF22D5002F08FFB03211F
:1035B0004DF22E5002F08AFB10214DF22F5002F0F6
:1035C00085FB03214DF2305002F080FB33214DF298
:1035D000315002F07BFB03214DF2325002F076FBBA
:1035E0006D214DF2335002F071FB00214FF4564033
:1035F00002F06CFB33214DF2016002F067FB002109
:103600004DF2026002F062FB34214DF2036002F0E1
:103610005DFB00214DF2046002F058FB3A214DF2AF
:10362000056002F053FB00214DF2066002F04EFBF4
:103630004A214DF2076002F049FB00214DF208607B
:1036400002F044FB5C214DF2096002F03FFB0021D7
:103650004DF20A6002F03AFB81214DF20B6002F05C
:1036600035FB00214DF20C6002F030FBA6214DF23B
:103670000D6002F02BFB00214DF20E6002F026FBE4
:10368000E5214DF20F6002F021FB01214DF21060A7
:1036900002F01CFB13214DF2116002F017FB012117
:1036A0004DF2126002F012FB54214DF2136002F051
:1036B0000DFB01214DF2146002F008FB82214DF256
:1036C000156002F003FB01214DF2166002F0FEFAD4
:1036D000CA214DF2176002F0F9FA02214DF218608A
:1036E00002F0F4FA00214DF2196002F0EFFA022123
:1036F0004DF21A6002F0EAFA01214DF21B6002F06D
:10370000E5FA02214DF21C6002F0E0FA34214DF29C
:103710001D6002F0DBFA02214DF21E6002F0D6FAC3
:1037200067214DF21F6002F0D1FA02214DF22060B4
:1037300002F0CCFA84214DF2216002F0C7FA022196
:103740004DF2226002F0C2FAA4214DF2236002F091
:10375000BDFA02214DF2246002F0B8FAB7214DF211
:10376000256002F0B3FA02214DF2266002F0AEFAB3
:10377000CF214DF2276002F0A9FA02214DF2286014
:1037800002F0A4FADE214DF2296002F09FFA022134
:103790004DF22A6002F09AFAF2214DF22B6002F00B
:1037A00095FA02214DF22C6002F090FAFE214DF2C2
:1037B0002D6002F08BFA03214DF22E6002F086FAA2
:1037C00010214DF22F6002F081FA03214DF230609A
:1037D00002F07CFA33214DF2316002F077FA0321D6
:1037E0004DF2326002F072FA6D214DF2336002F058
:1037F0006DFA55214FF4704002F068FAAA214FF299
:10380000010002F063FA52214FF2020002F05EFA68
:1038100008214FF2030002F059FA00214FF2040090
:1038200002F054FACC214FF4314002F04FFA00215B
:103830004BF2011002F04AFA05214FF4364002F033
:1038400045FA70214FF4374002F040FA70214BF2F4
:10385000017002F03BFA01214FF4384002F036FAD1
:1038600003214BF6010002F031FA03214BF602006E
:1038700002F02CFA03214BF6030002F027FA022192
:103880004FF43C4002F022FA00214BF6014002F0D6
:103890001DFA00214BF6024002F018FAD0214FF435
:1038A000494002F013FA02214CF6011002F00EFA20
:1038B00050214CF6021002F009FA50214CF6031088
:1038C00002F004FA50214CF6041002F0FFF9002136
:1038D0004FF4545002F0FAF955214FF4685002F0B9
:1038E000F5F94FF4885002F0D7F9782003F0D4FFAF
:1038F0004FF4245002F0D0F901F0DBBBFE48808881
:1039000049F2253188427DD147F6F001E52002F0E9
:10391000DDF94FF48071012002F0D8F94FF4E06135
:10392000022002F0D3F941F23001032002F0CEF977
:103930000021042002F0CAF940F20221082002F01E
:10394000C5F90021092002F0C1F900210A2002F086
:10395000BDF900210C2002F0B9F900210D2002F080
:10396000B5F900210F2002F0B1F90021102002F07A
:10397000ADF90721112002F0A9F90021122002F06F
:10398000A5F90021132002F0A1F90021072002F07F
:103990009DF941F29061102002F098F940F2272140
:1039A000112002F093F99D21122002F08FF94FF4BB
:1039B000C851132002F08AF92521292002F086F946
:1039C0000D212B2002F082F90721302002F07EF930
:1039D00040F20331312002F079F90321322002F064
:1039E00075F940F20621352002F070F908213620E1
:1039F00002F06CF940F20641372002F067F94FF40B
:103A0000417100E058E0382002F060F907213920C8
:103A100002F05CF940F202613C2002F057F9082103
:103A20003D2002F053F90021502002F04FF9EF2120
:103A3000512002F04BF90021522002F047F940F2E8
:103A40003F11532002F042F94FF42741602002F069
:103A50003DF90121612002F039F900216A2002F0CC
:103A600035F90021802002F031F90021812002F097
:103A70002DF90021822002F029F90021832002F093
:103A800025F90021842002F021F90021852002F08F
:103A90001DF91021902002F019F94FF4C061922015
:103AA00002F014F940F23311072002F00FF922213D
:103AB000002002F00BF91FE78F48808849F2283177
:103AC00088427DD141F28F01EC2002F0FFF841F2F3
:103AD0003421EF2002F0FAF84FF48071012002F057
:103AE000F5F84FF4E061022002F0F0F841F2300105
:103AF000032002F0EBF80021042002F0E7F840F286
:103B00000221082002F0E2F80021092002F0DEF88C
:103B100000210A2002F0DAF801210C2002F0D6F888
:103B200000210D2002F0D2F800210F2002F0CEF883
:103B30000021102002F0CAF80721112002F0C6F877
:103B40000021122002F0C2F80021132002F0BEF87A
:103B50000121072002F0BAF8322003F077FE41F28B
:103B60009041102002F0B2F840F22721112002F01B
:103B7000ADF8322003F06AFE8A21122002F0A6F886
:103B8000322003F063FE4FF4D051132002F09EF870
:103B90000621292002F09AF80D212B2002F096F838
:103BA000322003F053FE0021202002F08FF8002184
:103BB000212002F08BF8322003F048FE002100E0C3
:103BC00075E0302002F082F840F20461312002F00A
:103BD0007DF840F20531322002F078F800213520DE
:103BE00002F074F840F60941362002F06FF84FF405
:103BF0000171372002F06AF840F20131382002F0FA
:103C000065F840F20771392002F060F800213C208D
:103C100002F05CF840F60A213D2002F057F832200D
:103C200003F014FE0021502002F050F8EF21512043
:103C300002F04CF80021522002F048F840F23F1107
:103C4000532002F043F84FF42741602002F03EF881
:103C50000121612002F03AF800216A2002F036F8D2
:103C60000021802002F032F80021812002F02EF89D
:103C70000021822002F02AF80021832002F026F899
:103C80000021842002F022F80021852002F01EF895
:103C90001021902002F01AF84FF4C061922002F037
:103CA00015F840F23311072002F010F824E612480C
:103CB000808849F2203188427ED10021084602F0F6
:103CC00005F84FF48071012002F000F84FF4E06134
:103CD000022001F0FBFF41F23001032001F0F6FF6A
:103CE0000021042001F0F2FF40F20221082001F03F
:103CF000EDFF0021092001E0CC00002001F0E6FFEB
:103D000000210A2001F0E2FF01210C2001F0DEFF7A
:103D100000210D2001F0DAFF00210F2001F0D6FF75
:103D2000322003F093FD40F20111072001F0CEFF95
:103D3000322003F08BFD4FF48651102001F0C6FFB6
:103D40000721112001F0C2FF4FF48871122001F009
:103D5000BDFF4FF43061132001F0B8FF002129208E
:103D600001F0B4FF44F210012B2001F0AFFF00215D
:103D7000502001F0ABFFEF21512001F0A7FF0021FF
:103D8000522001F0A3FF40F23F11532001F09EFFAB
:103D90004FF41C51602001F099FF0121612001F0D6
:103DA00095FF00216A2001F091FF0021802001F0A1
:103DB0008DFF0021812000E030E001F087FF00212D
:103DC000822001F083FF0021832001F07FFF00218A
:103DD000842001F07BFF0021852001F077FF102176
:103DE000902001F073FF0021922001F06FFF01216C
:103DF000932001F06BFF4FF48871952001F066FF6E
:103E00000021972001F062FF0021982001F05EFF61
:103E100040F27311072001F059FF6DE5FE488088DC
:103E200049F2313188427DD141F21401E72001F09D
:103E30004DFF4FF48071012001F048FF4FF40071F5
:103E4000022001F043FF41F23801032001F03EFF60
:103E500040F20221082001F039FF0021092001F081
:103E600035FF00210A2001F031FF00210C2001F074
:103E70002DFF00210D2001F029FF00210F2001F06E
:103E800025FF0021102001F021FF0721112001F062
:103E90001DFF0021122001F019FF0021132001F065
:103EA00015FFC82003F0D2FC41F29061102001F010
:103EB0000DFF40F22721112001F008FF322003F00E
:103EC000C5FC0C21122001F001FF322003F0BEFCE2
:103ED0004FF40061132001F0F9FE1121292001F0B7
:103EE000F5FE0B212B2001F0F1FE322003F0AEFC99
:103EF0000021202001F0EAFE40F23F11212001F0D4
:103F0000E5FE0021302001F0E1FE4FF48371312005
:103F100001F0DCFE0021322001F0D8FE4FF40171E7
:103F2000352000E064E001F0D1FE41F20A61362064
:103F300001F0CCFE40F20771372001F0C7FE4FF4CC
:103F40008371382001F0C2FE40F20771392001F080
:103F5000BDFE40F202413C2001F0B8FE40F60F41A8
:103F60003D2001F0B3FE0021502001F0AFFEEF2113
:103F7000512001F0ABFE0021522001F0A7FE40F2DB
:103F80003F11532001F0A2FE4FF41C51602001F0BC
:103F90009DFE0121612001F099FE00216A2001F0BF
:103FA00095FE0021802001F091FE0021812001F08A
:103FB0008DFE0021822001F089FE0021832001F086
:103FC00085FE0021842001F081FE0021852001F082
:103FD0007DFE1021902001F079FE4FF4C061922007
:103FE00001F074FE40F23311072001F06FFE83E40C
:103FF0008948808845F2084188427DD14FF480711C
:10400000012001F063FE4FF4E061022001F05EFE4A
:1040100041F23001032001F059FE0021042001F09B
:1040200055FE40F20721082001F050FE0021092032
:1040300001F04CFE00210A2001F048FE00210C2076
:1040400001F044FE00210D2001F040FE00210F2070
:1040500001F03CFE142003F0F9FB41F2B0611020A6
:1040600001F034FE0121112001F030FE0121172062
:1040700001F02CFE4FF49C71122001F027FE4FF44A
:104080000061132001F022FE0921292001F01EFE0B
:1040900009212A2001F01AFE0021A42001F016FEB9
:1040A0000021502001F012FEEF21512001F00EFE00
:1040B0000021522001F00AFE40F23F11532001F08E
:1040C00005FE4FF41C51602001F000FE012161202B
:1040D00001F0FCFD00216A2001F0F8FD00218020A4
:1040E00001F0F4FD0021812001F0F0FD002182208B
:1040F00001F0ECFD002100E024E0832001F0E6FD6A
:104100000021842001F0E2FD0021852001F0DEFD88
:104110001321902001F0DAFD0021922001F0D6FD5C
:104120000321932001F0D2FD4FF48871952001F016
:10413000CDFD40F27311072001F0C8FD322003F0DD
:1041400085FBB8E43448808841F2055188427DD12E
:104150000021072001F0BAFD322003F077FB4FF475
:104160008E71122001F0B2FD0121A42001F0AEFDFC
:104170000F21082001F0AAFD08210A2001F0A6FD68
:1041800008210D2001F0A2FD40F20771302001F05E
:104190009DFD0721312001F099FD40F2036132209D
:1041A00001F094FD4FF4E061332001F08FFD40F207
:1041B0000221342001F08AFD0221352001F086FD24
:1041C00041F60F71362001F081FD40F20771372072
:1041D00001F07CFD0021382001F078FD002139201C
:1041E00001F074FD40F207713A2001F06FFD0021EB
:1041F0003B2001F06BFD07213C2001F067FD002111
:104200003D2001F063FD322003F020FB0121072057
:1042100001F05CFD012101E0CC000020172001F03D
:1042200055FD322003F012FB4FF4BD51102001F078
:104230004DFD40F21721112001F048FD4FF48F7120
:10424000122001F043FD4FF4706100E098E013206C
:1042500001F03CFD00212A2001F038FD0A2129202F
:1042600001F034FD4FF49F71122001F02FFD002169
:10427000502001F02BFDEF21512001F027FD0021FE
:10428000522001F023FD40F23F11532001F01EFDAA
:104290004FF41C51602001F019FD0121612001F053
:1042A00015FD00216A2001F011FD0021802001F0A0
:1042B0000DFD0021812001F009FD0021822001F087
:1042C00005FD0021832001F001FD0021842001F083
:1042D000FDFC0021852001F0F9FC1321902001F064
:1042E000F5FC4FF44071922001F0F0FC0521932081
:1042F00001F0ECFC0021952001F0E8FC0021972062
:1043000001F0E4FC0021982001F0E0FC4FF4807102
:10431000012001F0DBFC4FF4E061022001F0D6FC4B
:1043200041F23801032001F0D1FC0021042001F00A
:10433000CDFC00210C2001F0C9FC00210F2001F070
:10434000C5FC0021202001F0C1FC0021212001F04A
:10435000BDFC2121072001F0B9FC142003F076FAFE
:104360006121072001F0B2FC142003F06FFA40F243
:104370007311072001F0AAFC142003F067FA95E4FA
:10438000FE4880884BF2055188427CD100210846C6
:1043900001F09CFC0021084601F098FC0021084631
:1043A00001F094FC0021084601F090FC0121A420BA
:1043B00001F08CFC142003F049FA4FF41C516020EA
:1043C00001F084FC40F20221082001F07FFC4FF450
:1043D0000571302001F07AFC43F21571312001F0B3
:1043E00075FC40F20461322001F070FC40F6166169
:1043F000332001F06BFC42F21121342001F066FC05
:104400004FF4A851352001F061FC48F207513620E5
:1044100001F05CFC41F20741372001F057FC41F20A
:104420000341382001F052FC2021392001F04EFCDC
:104430001A21902001F04AFC0021102001F046FCD6
:104440000721112001F042FC0021122001F03EFC66
:104450000021132001F03AFC142003F0F7F94FF487
:10446000E661102001F032FC40F23711112001F01A
:104470002DFC142003F0EAF94FF4DC71122001F056
:1044800025FC142000E085E003F0E0F94FF47061B2
:10449000132001F01BFC80212A2001F017FC482189
:1044A000292001F013FC142003F0D0F94FF480719F
:1044B000012001F00BFC4FF4E061022001F006FC4A
:1044C00041F23801032001F001FC40F202210820F2
:1044D00001F0FCFB00210A2001F0F8FB00210C2078
:1044E00001F0F4FB00210D2001F0F0FB30210E2043
:1044F00001F0ECFB0021502001F0E8FBEF215120FE
:1045000001F0E4FB0021522001F0E0FB40F23F11FA
:10451000532001F0DBFB4FF41C51602001F0D6FB6F
:104520000121612001F0D2FB00216A2001F0CEFBC5
:104530001121902001F0CAFB4FF4C061922001F0DC
:10454000C5FB40F20241932001F0C0FB0221942000
:1045500001F0BCFB142003F079F90121072001F0E0
:10456000B5FB142003F072F96121072001F0AEFBC6
:1045700040F27311072001F0A9FB0021202001F077
:10458000A5FB0021212001F0A1FB2221002001F048
:104590009DFB42E4794880884CF2055188427CD1E9
:1045A0000021084601F092FB0021084601F08EFB35
:1045B000142003F04BF90021084601F087FB00218D
:1045C000084601F083FB0021084601F07FFB002133
:1045D000084601F07BFB0121A42001F077FB1420A9
:1045E00003F034F94FF41C51602001F06FFB40F6EA
:1045F0000601082001F06AFB40F20371302001F04F
:1046000065FB0121312001F061FB0421322001F022
:104610005DFB4FF48171332001F058FB4FF4407182
:10462000342001F053FB40F20311352001F04EFB22
:104630001F21362001F04AFB40F20371372001F0C0
:1046400045FB0121382001F041FB0421392001F014
:104650003DFB1521902001F039FB4FF482611020C1
:1046600001F034FB40F24721112001F02FFB4FF401
:10467000DE71122001F02AFB4FF46061132001F07B
:1046800025FB782003F0E2F84FF48071012001F05F
:104690001DFB4FF40071022000E052E001F016FB18
:1046A00041F23001032001F011FB08210A2001F042
:1046B0000DFB00210C2001F009FB20210E2001F050
:1046C00005FB00210F2001F001FB0021202001F05B
:1046D000FDFA0021212001F0F9FA3D212A2001F004
:1046E000F5FA142003F0B2F82D21292001F0EEFA9A
:1046F0000021502001F0EAFA4DF2EF01512001F0C3
:10470000E5FA0021522001F0E1FA40F23F11532076
:1047100001F0DCFA0021612001F0D8FA00216A20C2
:1047200001F0D4FA4FF44071922001F0CFFA052144
:10473000932001F0CBFA4FF48071072001F0C6FA04
:1047400055E40E48808848F6891188427ED10121BF
:10475000002001F0BBFA4AF6A401032001F0B6FAEA
:1047600000210C2001F0B2FA40F60C010D2001F0FE
:10477000ADFA4FF42C510E2002E00000CC000020D6
:1047800001F0A4FAB0211E2001F0A0FA42F63F3158
:10479000012001F09BFA4FF4C061022001F096FA6B
:1047A0000021102001F092FA46F27801112001F068
:1047B0008DFA0021052001F089FA0021062001F080
:1047C00085FA4EF61C71162001F080FA032117209D
:1047D00001F07CFA40F23321072001F077FA002142
:1047E0000B2001F073FA00210F2001F06FFA002175
:1047F000412001F06BFA0021422001F067FA00210C
:10480000482001F063FA40F23F11492001F05EFABE
:1048100000214A2001F05AFA00214B2001F056FAFB
:104820004FF46F41442001F051FA0021452001F07E
:104830004DFA40F23F11462001F048FA40F207716C
:10484000302001F043FA4FF4017100E040E03120E4
:1048500001F03CFA4FF40171322001F037FA40F2D6
:104860000251332001F032FA40F20751342001F0B6
:104870002DFA4FF40171352001F028FA4FF401713F
:10488000362001F023FA40F20251372001F01EFADF
:1048900040F202313A2001F019FA40F202313B2095
:1048A00001F014FA0021232001F010FA0021242045
:1048B00001F00CFA4FF40041252001F007FA002125
:1048C0004F2001F003FA00214E2001F0FFF9F0E340
:1048D000FE48808844F2315188427DD10121002078
:1048E00001F0F4F90A2002F0B1FF41F22861102032
:1048F00001F0ECF90E21122001F0E8F940F639211F
:10490000132001F0E3F90A2002F0A0FF402111205A
:1049100001F0DCF95021152001F0D8F90A2002F04D
:1049200095FF1E21122001F0D1F90A2002F08EFF1E
:104930004FF4B151102001F0C9F942F6392113208A
:1049400001F0C4F90A2002F081FF4FF480710120C8
:1049500001F0BCF94FF44071022001F0B7F941F2C7
:104960003801032001F0B2F940F20221082001F0E1
:10497000ADF908210A2001F0A9F90021302001F049
:10498000A5F940F20241312001F0A0F94FF4837102
:10499000322001F09BF940F20351332001F096F9E7
:1049A0004FF48271342001F091F940F20131352049
:1049B00001F08CF940F20771362001F087F940F2DE
:1049C0000531372001F082F94FF40271382001F0EF
:1049D0007DF940F60B7100E03CE0392001F076F9FA
:1049E0000221412001F072F94FF41C51602001F0C6
:1049F0006DF90121612001F069F94FF404719020F3
:104A000001F064F94FF48571922001F05FF90421FF
:104A1000932001F05BF94FF48071A02001F056F96A
:104A20000121072001F052F92121072001F04EF960
:104A30002321072001F04AF93321072001F046F92C
:104A400040F23311072001F041F90021A02001F0CC
:104A50003DF92EE39D48808844F2355188427CD14F
:104A60003021152001F032F910219A2001F02EF9A1
:104A70002021112001F02AF943F22841102001F0F1
:104A800025F90221122001F021F941F23801132009
:104A900001F01CF9282002F0D9FE1221084601F08D
:104AA00015F9282002F0D2FE43F22041102001F037
:104AB0000DF943F23801132001F008F9462002F005
:104AC000C5FE0021302001F001F940F20241312001
:104AD00001F0FCF840F20731322001F0F7F84FF412
:104AE0004171332001F0F2F80421342001F0EEF896
:104AF00040F20141352001F0E9F840F2077136201B
:104B000001F0E4F840F20531372001F0DFF84FF40E
:104B1000C261382001F0DAF84FF4C261392001F0A7
:104B2000D5F84FF48071012001F0D0F84FF44071B6
:104B3000022001F0CBF841F23001032001F0C6F869
:104B400040F60801082001F0C1F808210A2001F010
:104B5000BDF84FF41C51602000E033E001F0B6F8DE
:104B60000121612001F0B2F84FF49F71902001F013
:104B7000ADF84FF48071922001F0A8F84FF48071E5
:104B8000932001F0A3F84FF44051A02001F09EF8CB
:104B90001021A32001F09AF80121072001F096F8D6
:104BA0002121072001F092F82321072001F08EF83F
:104BB0003321072001F08AF840F23311072001F079
:104BC00085F876E24148808841F663118842F8D141
:104BD000E22001F061F84FF480703D490861400027
:104BE00048611D203B4908608020394948610861BF
:104BF000800008614010086140004861022035498A
:104C000008608020324948610861800008614010D6
:104C100008614000486104202E49086080202C492A
:104C20004861086180000861642002F035FEE020E0
:104C300001F032F84FF48070254908614000486166
:104C400001202449086080202149486108618000D2
:104C500008610A2002F0FAFDE02001F01DF84FF48F
:104C600080701B49086140004861032019490860B1
:104C70008020174948610861800008610C2002F01B
:104C8000E5FD012001F008F80A2002F0DFFDE62032
:104C900001F002F84FF480700D490861400048614E
:104CA0002F200C4908608020094948610861800074
:104CB00008614010086140004861FF200549086014
:104CC0008020034948610861800005E0CC00002095
:104CD000001001400C0C01400861401008614000C8
:104CE0004861FF20F84908608020F8494861086160
:104CF00080000861B02000F0CFFF4FF48070F349CE
:104D00000861400048612020EF4908608020EF4999
:104D100048610861800008614010086140004861F6
:104D20000020E94908608020E84948610861800066
:104D3000086140100861400048610320E2490860B2
:104D40008020E249486108618000086140100861E4
:104D50004000486140F21F30DB4908608020DB4999
:104D600048610861800008614010086140004861A6
:104D70000120D54908608020D4494861086180003D
:104D80000861401008614000486140F2DF10CE49E0
:104D900008608020CD4948610861800008614010AA
:104DA0000861400048610020C74908608020C74969
:104DB0004861086180000861B42000F06DFF4FF485
:104DC0008070C2490861400048610420BE49086003
:104DD0008020BE4948610861800008614010086178
:104DE0004000486140F21F40B74908608020B74941
:104DF0004861086180000861401008614000486116
:104E00000020B14908608020B049486108618000F5
:104E1000086140100861400048612E20AA490860DE
:104E20008020AA494861086180000861401008613B
:104E3000400048610020A44908608020A3494861DF
:104E4000086180000861401008614000486100204E
:104E50009D49086080209D49486108618000086183
:104E60004010086140004861002097490860802098
:104E7000964948610861800008614010086140005F
:104E8000486100209049086080209049486108618D
:104E900080000861B62000F0FFFE4FF480708B495F
:104EA00008614000486102208749086080208749E6
:104EB0004861086180000861401008614000486155
:104EC0004FF4037080490860802080494861086180
:104ED00080000861401008614000486100207A4964
:104EE00008608020794948610861800008614010AD
:104EF00008614000486117207349086080207349A9
:104F00004861086180000861401008614000486104
:104F100015206D49086080206C4948610861800057
:104F2000086140100861400048610020664908603F
:104F3000802066494861086180000861401008616E
:104F40004000486100206049086080205F49486156
:104F5000086180000861F02000F09EFE4FF4807030
:104F60005A49086140004861032057490860802081
:104F700056494861086180000861292000F08CFED4
:104F8000D02000F089FE4FF4807050490861400045
:104F9000486100204C49086080204C494861086104
:104FA00080000861BE2000F077FE4FF48070474912
:104FB000086140004861052043490860802043495A
:104FC0004861086180000861401008614000486144
:104FD000FE203D49086080203C494861086180000E
:104FE00008614010086140004861012036490860AE
:104FF00080203649486108618000086140100861DE
:105000004000486100203049086080202F494861F5
:10501000086180000861401008614000486100207C
:105020002949086080202949486108618000086199
:10503000401008614000486100202349086080203A
:1050400022494861086180000861B82000F024FE10
:105050004FF480701D4908614000486103201A49DF
:10506000086080201949486108618000086140108B
:1050700008614000486101201349086080201349FD
:105080004861086180000861BA2000F005FE4FF415
:1050900080700E4908614000486101200A4908609B
:1050A00080200A494861086180000861642000F09E
:1050B0005DF80020FBF734FF0120054908604FF63A
:1050C000FF70FBF7E9FE08BD0C0C01400010014029
:1050D000A801224210B50246012000E050430B1EF9
:1050E000A1F10104E1B2F9D110BD000010B54FF0FB
:1050F000883017490860091D0860002014490C31E8
:1051000008608815134908614000486140204861E3
:105110001148808848F68911884202D1022002F0A5
:10512000BBFB0B480830006884B240200949086185
:10513000C00008614FF0333005490860091D086060
:105140004FF6FF7002490C310860204610BD000088
:10515000000C014000100140CC00002010B50446B6
:10516000204600F099FDFFF7C1FF10BD2DE9F04189
:105170000446BE2000F090FD4FF480702D49086178
:105180004000486105202C49086080202949486179
:1051900008618000086140100861400048612046B5
:1051A00004F0B6FC05464FF06632244B04F0C4FC14
:1051B000074604F069FC2049086080201D494861C9
:1051C00008618000086140100861400048610120CA
:1051D000194908608020174948610861800008610A
:1051E0004010086140004861FF201349086080209A
:1051F0001049486108618000086140100861400062
:10520000486100200C49086080200A494861086113
:105210008000086140100861400048610020064994
:105220000860802003494861086180000861BDE88A
:10523000F0810000001001400C0C01406666044043
:10524000F0B5054600240027FC48807901280BD1E1
:10525000FA48808846F60401884205D0F7488088DD
:1052600041F66311884208D1F4488079F0B9F348D7
:10527000808841F66311884218D1082D15D2DFE8E5
:1052800005F00406080A0C0E101206250DE007258D
:105290000BE0042509E0052507E0012505E00025D0
:1052A00003E0032501E0022500BF00BFE34880883A
:1052B00049F24131884217D0E048808846F604011F
:1052C000884211D0DD48808845F2103188420BD0E9
:1052D000DA48808845F21051884205D0D748808846
:1052E00041F6631188427DD1082D1CD2DFE805F01C
:1052F0000406090C0F12151800BF14E044F08004D6
:1053000011E044F040040EE044F0C0040BE044F02F
:10531000200408E044F0600405E044F0A00402E04A
:1053200044F0E00400BF00BFC448808845F210513B
:10533000884202D14FF4585700E03627BF48808892
:1053400045F2103188420DD0BC48808845F210519A
:10535000884207D0B948808841F66311884201D05D
:1053600044F00804B548808846F60401884201D11B
:1053700044F002042146384600F0A8FCAF4880887B
:1053800041F6631188421DD004F0200068B1AB489B
:105390000088AA494988884214DAA84806884088C3
:1053A000A6490880084646800CE0A4480088A34926
:1053B0004988884206DDA148068840889F490880C0
:1053C000084646809D48808845F2105188427DD12C
:1053D0009A49488900F060FC4FF480709849086150
:1053E000400000E030E148610020964908608020DC
:1053F0009349486108618000086190494989491CC6
:1054000088B200F049FC4FF480708D49086140007B
:10541000486100208B490860802089494861086103
:105420008000086185494989891C88B200F034FCF4
:105430004FF4807082490861400048617F480088CD
:10544000401E00127F49086080207D494861086144
:105450008000086179494989C91C88B200F01CFCA8
:105460004FF48070764908614000486173480078C5
:10547000401EC0B2734908608020714948610861CC
:10548000800008616D49888900F006FC4FF4807047
:105490006B4908614000486100206A49086080202B
:1054A0006749486108618000086164498989491C2D
:1054B00088B200F0F1FB4FF4807061490861400050
:1054C000486100205F490860802000E035E05C49C9
:1054D000486108618000086158498989891C88B23F
:1054E00000F0DAFB4FF480705549086140004861D4
:1054F00052484088401E001252490860802050499E
:1055000048610861800008614C498989C91C88B2DA
:1055100000F0C2FB4FF480704949086140004861C7
:1055200046488078401EC0B2464908608020444901
:105530004861086180000861ADE04049488900F099
:10554000ABFB4FF480703E49086140004861002089
:105550003C49086080203A49486108618000086140
:1055600040100861400048610020364908608020F2
:1055700033494861086180000861401008614000BB
:1055800048612E480088401E00122E490860802085
:105590002B494861086180000861401008614000A3
:1055A000486126480078401EC0B226490860802025
:1055B000234948610861800008612049888900F01A
:1055C0006BFB4FF480701E49086140004861002069
:1055D0001C49086080201A49486108618000086100
:1055E0004010086140004861002016490860802092
:1055F000134948610861800008614010086140005B
:1056000048610E484088401E00120E490860802004
:105610000B49486108618000086140100861400042
:10562000486106488078401EC0B206490860802064
:10563000034948610861800008612CE0CC0000202B
:10564000001001400C0C0140082D1CD2DFE805F0D1
:1056500004070A0D0F12151844F0300413E044F04B
:10566000100410E044F020040DE000BF0BE044F013
:10567000380408E044F0280405E044F0180402E08F
:1056800044F0080400BF00BF032744F480542146BF
:10569000384600F01BFBF0BD30B504460D46EA4825
:1056A000808849F24131884205D0E748808845F238
:1056B0001031884240D1E449488900F0EDFA4FF4B6
:1056C0008070E2490861400048612012E0490860AA
:1056D0008020DE494861086180000861401008614F
:1056E00040004861E0B2DA4908608020D74948614B
:1056F000086180000861D449888900F0CDFA4FF430
:105700008070D2490861400048612812D049086081
:105710008020CE494861086180000861401008611E
:1057200040004861E8B2CA4908608020C749486122
:1057300008618000086186E1C348808846F604015C
:10574000884249D1C0488079012804D1BE480088E8
:10575000401E001B84B2BC49488900F09DFA4FF4FA
:105760008070BA490861400048612012B849086059
:105770008020B649486108618000086140100861D6
:1057800040004861E0B2B24908608020AF494861FA
:10579000086180000861AC49888900F07DFA4FF407
:1057A0008070AA490861400048612812A849086031
:1057B0008020A649486108618000086140100861A6
:1057C00040004861E8B2A249086080209F494861D2
:1057D00008618000086136E19B48808841F66311CA
:1057E00088427DD19848807900283FD1964800882A
:1057F000401E001B84B29449488900F04DFA4FF4D2
:10580000807092490861400048610020904908601A
:1058100080208E494861086180000861401008615D
:105820004000486100208A4908608020874948611B
:105830000861800008614010086140004861201242
:1058400083490860802081494861086180000861BF
:105850004010086140004861E0B27D490860802046
:105860007A49486108618000086141E076494889C9
:1058700000F012FA4FF480707449086140004861EA
:1058800020127349086080207049486108618000D7
:1058900008614010086140004861E0B26C4908604E
:1058A00080206A49486108618000086140100861F1
:1058B0004000486164480088401E00126449086046
:1058C00080206249486108618000086140100861D9
:1058D000400048615C480078401EC0B25C4900E06E
:1058E00047E00860802059494861086180000861EC
:1058F0005549888900F0D0F94FF480705349086108
:105900004000486128125249086080204F49486190
:105910000861800008614010086140004861E8B2F9
:105920004B4908608020494948610861800008614E
:10593000401008614000486143484088401E001202
:10594000434908608020414948610861800008613E
:1059500040100861400048613B488078401EC0B25A
:105960003B4908608020394948610861800008612E
:1059700069E03548808845F21051884250D132495B
:10598000488900F089F94FF480703049086140007F
:10599000486120122E49086080202C494861086126
:1059A0008000086128494989491C88B200F074F9CF
:1059B0004FF480702549086140004861E0B22449F5
:1059C00008608020214948610861800008611E4903
:1059D000888900F061F94FF480701C49086140002B
:1059E000486128121A4908608020184948610861F6
:1059F0008000086114498989491C88B200F04CF97B
:105A00004FF480701149086140004861E8B21049C4
:105A1000086080200D49486108618000086112E03B
:105A200009488079012804D107480088401E001BDE
:105A300084B205494889214600F048F9024988891D
:105A4000294600F043F930BDCC0000200010014091
:105A50000C0C01402DE9F84F80460E4617461C46B7
:105A6000B3462046E31704EB5373DB1021464FEA9D
:105A7000E47C04EB5C7C4FEAEC0CA4EBCC0CBCF1BA
:105A8000000F02D04FF0010C01E04FF0000C634416
:105A9000224604EBD27C4FEA6C0C03FB0CF3DBB226
:105AA0000093A7F12000C7B2002556E00C2C07D1C7
:105AB00007EB47002B4901EB800010F8059013E03D
:105AC000102C05D1284800EB071010F805900BE0CA
:105AD000182C07D107EBC700244901EB800010F810
